:1000000012C0189518951895189518951895189563
:100010001895189518951895189518951895189578
:100020001895189518958FED8DBFC8EBE0EA4E2E08
:10003000DD275D2EA89584B7082E877F84BF88E1D1
:10004000992781BD91BDEEE7F0E0A0E6B0E08827FA
:100050008D933197E9F7662474B7777F74BF8EE18B
:1000600081BD86E081BD8FEF87BB80E081BB80E0F2
:1000700090E0A3E68D939C938BE090E0A1E68D93B6
:100080009C9384E190E0A7E68D939C937091690026
:100090007F7770936900709169007F7B709369002E
:1000A00080E090E0AAE68D939C9380E090E0ACE63F
:1000B0008D939C9380E090E0A0E78D939C9380E0EB
:1000C00090E0AEE68D939C9370E078BBA8E38C91B2
:1000D00080FB80F9809580FBA8E38C9181F98C935B
:1000E00081E080936000009160000A3010F009F018
:1000F00011C088B391E0892788BB88B392E0892733
:1001000088BB88EC90E030D2A0E68C918F5F8C9316
:1001100008F4E9CF70E078BB88EE93E025D281B592
:10012000886081BD829B05C080EA9CE8A5E68D932E
:100130009C93829905C080E596E4A5E68D939C93F7
:10014000A7E60D911C91003050E0150780E014F0F7
:1001500009F081E08F93A3E60D911C91083850E9D6
:10016000150781E008F080E09F918923882309F436
:1001700002C0A3E6E2D1A7E60D911C91003050E049
:10018000150709F010C080E090E0A3E68D939C93E2
:10019000709169007F7770936900709169007F7B2F
:1001A00070936900C298819905C084E190E0A7E648
:1001B0008D939C93A7E60D911C91003050E015079C
:1001C00014F009F001C002C0A7E6BED1A7E60D9168
:1001D0001C91003050E0150780E014F009F081E038
:1001E0008F93A0E30C9100FB81E00EF080E09F91E3
:1001F0008923882309F405C07091690070687093A1
:100200006900A5E64D915C91A3E60D911C91041740
:10021000150780E010F009F081E08F93A0E30C91C6
:1002200000FB81E00EF080E09F918923882309F490
:1002300005C070916900706470936900A7E60D9124
:100240001C91003050E0150714F009F001C046C0C1
:10025000A9E68C9187FB81E00EF480E08F93A5E600
:100260004D915C91A3E60D911C910417150781E057
:1002700008F080E09F9189238F93AAE60D911C914D
:10028000003050E0150781E009F080E09F9189235C
:10029000882309F406C085E090E0AAE68D939C933C
:1002A000C298A9E68C9187FB81E00EF080E08F93E5
:1002B000A5E64D915C91A3E60D911C9104171507DD
:1002C00081E008F080E09F918923882309F406C02B
:1002D00085E090E0AAE68D939C93C29AA5E64D91A5
:1002E0005C91A3E60D911C910417150710F009F01D
:1002F00001C026C0A9E68C9186FB81E00EF480E067
:100300008F93ACE60D911C91003050E0150781E011
:1003100009F080E09F918923882309F406C085E0D5
:1003200090E0ACE68D939C93C298A9E68C9186FBF5
:100330000EF006C085E090E0ACE68D939C93C29AE7
:10034000AAE60D911C91003050E0150714F009F059
:1003500001C002C0AAE6F8D0AAE60D911C910430B3
:1003600050E0150709F001C0C09AAAE60D911C9152
:10037000023050E0150709F001C0C098ACE60D91BD
:100380001C91003050E0150714F009F001C002C0C4
:10039000ACE6DAD0ACE60D911C91043050E01507C4
:1003A00009F001C0C19AACE60D911C91023050E0F9
:1003B000150709F001C0C198A1E60D911C9100300C
:1003C00050E0150714F009F001C008C0A1E60D9136
:1003D0001C9101501040A1E60D931C93A1E60D91D4
:1003E0001C91033050E0150709F001C0C39AA1E643
:1003F0000D911C91013050E0150709F001C0C39820
:10040000A1E60D911C91003050E0150709F005C0E0
:100410008BE090E0A1E68D939C93A0E30C9100FB10
:1004200081E00EF080E08F93A8E30C9100FB81E067
:100430000EF480E09F9189238F93A8E30C9101FB38
:1004400081E00EF480E09F918923882309F402C0A3
:10045000A0E773D0809905C080E090E0A0E78D937D
:100460009C93A0E70D911C91083C50E0150709F002
:1004700021C080E090E0A0E78D939C9381E0809381
:100480006000009160000A3010F009F012C088B3DB
:1004900091E0892788BB88B392E0892788BBA8951B
:1004A00084E690E061D0A0E68C918F5F8C9308F495
:1004B000E8CF07C0A89584E690E056D033CEF894F4
:1004C000FFCFC098C198C29A88B398E0892788BBAB
:1004D000A0E30C9100FB81E00EF080E08F93AEE68C
:1004E0000D911C91003F52ED150780E010F009F0CE
:1004F00081E09F91892B882309F416C0C3988BE073
:1005000090E0A1E68D939C9380E090E0AEE68D9321
:100510009C9384E190E0A7E68D939C937091690091
:10052000706870936900FECDAEE607D0A89584E6AA
:1005300090E01AD0C6CFF894FFCFED91FC91EF5F19
:10054000FF4FFC93EE930895ED91FC91E150F04044
:10055000FC93EE9308953197F1F70895689462F84B
:100560000895E89462F80895EF93FF93EE27E82B3F
:10057000E92B31F0E0EDF7E03197F1F70197D1F792
:06058000FF91EF910895C8
:00000001FF
